:040000000AEF00F013
:10000800FACF01F0FBCF02F031ED15F0A3EF17F0B6
:10060000010000000A00000064000000E803000090
:1006100010270000A086010040420F00809698003D
:1006200000E1F50500CA9A3B00803FCDCC3DD723C1
:100630003C12833AB7D138C62737388635C0D6330F
:10064000CC2B32708930E7DB2EE53C1E42A20D0038
:10065000803F00204100C842007A44401C4650C3FD
:100660004724744997184BBCBE4C6B6E4E03155013
:1006700079AD60F3497152413020566F6C746167F7
:1006800065203A200000252E33670000000000019D
:10069000000E00010001A06F00018F0E00019F6F8E
:1006A00074EF0BF000010001B951250AD8B409D04C
:1006B0008BC0D9FF8CC0DAFF0001B9C0DFFF70EF3B
:1006C0000BF0000E00010001AC6F000E0001AB6FDB
:1006D00000018DC0F6FF00018EC0F7FF0800F55045
:1006E0002E0AD8A43FD000010001AC8D000100010A
:1006F0008D4B8E2B000E00010001B56F000E000126
:10070000B46F22D0B4C01FF0B5C020F0000E226E2E
:100710000A0E216E0AEC17F000018DC0F6FF0001F1
:100720008EC0F7FF0800F5501F26000E2022D00EC5
:100730001F2400010001B46FFF0E20200001B56FDF
:10074000000100018D4B8E2B00018DC0F6FF0001D2
:100750008EC0F7FF0800F5CF0FF065EC17F0D8A0BA
:1007600010D0D0D7000E00010001B56F000E0001BF
:10077000B46F00010001AC8904D000010001AC831A
:1007800019D000018DC0F6FF00018EC0F7FF0001F7
:1007900000018D4B8E2B08000001F5CFB9F0000150
:1007A000B951000AD8B486EF0BF0670AD8B4E5D780
:1007B00074EF0BF0070E00010001AC15D8B410EF78
:1007C0000BF000010001ACA907D0000E00010001F0
:1007D000B56F060E0001B46F9FC0D9FFA0C0DAFF4D
:1007E0000001DECFB6F00001DECFB7F00001DDCFB3
:1007F000B8F0030E000100019F27000E0001A023A6
:1008000000010001B851800A800F07E1000E0001CD
:10081000B75D03E1000E0001B65DD8B012D0B6C0DE
:100820005AF0B7C05BF0B8C05CF052EC17F05CC097
:10083000B8F05BC0B7F05AC0B6F0030E000100017B
:10084000AB13000E00010001B36F000E0001B26F88
:100850007F0E00010001B8150001B7110001B611AB
:10086000D8B4A5D0820E0001926FFF0E936F0001E5
:10087000B6C094F00001B7C095F00001B8C096F082
:100880000001B9C097F0100E06D00001D890973340
:10089000963395339433E82EF8D700019451000134
:1008A000922500010001B26F00010001000E9321AA
:1008B000B36F00010001B207D8A0B307B2C01FF0A8
:1008C000B3C020F0000E226E030E216E0AEC17F06A
:1008D0001FC0B2F020C0B3F0B2C016F0B3C017F022
:1008E000000E196E0A0E186EA6EC14F016C0B2F0C7
:1008F00017C0B3F000010001B3AF05D00001000143
:10090000B207D8A0B30700010001B2510008366E4B
:100910008DEC0BF038C0AAF037C0A9F036C0A8F0B3
:100920000001000E00010001816F0001A80E00010E
:10093000806FB6C082F0B7C083F0B8C084F0B0EC6E
:1009400016F0A8C080F0A9C081F0AAC082F0000E05
:1009500000010001836F800E00010001846F3F0ED3
:1009600000010001856F14EC13F0D8B006D000012F
:100970000001B207D8A0B3071AD0A8C080F0A9C060
:1009800081F0AAC082F0000E00010001836F200EEA
:1009900000010001846F410E00010001856F14EC1D
:1009A00013F0D8A004D000010001B24BB32B00011A
:1009B0000001B351800A800F010ED8B4B25DD8B0E7
:1009C00009D00001926F010E00010001B96F000112
:1009D000925102D0B2C0B9F000010001ACA3B6D26E
:1009E00000010001B351800A810FFC0ED8B4B25D42
:1009F000D8A013D000010001B351800A0001926F0A
:100A00000001B45100010001B25D00010001B551C7
:100A1000800A00019259D8A099D200010001B55175
:100A2000B411D8B409D000010001ACA305D0000175
:100A30000001B407D8A0B507090E00010001B45D9C
:100A4000000E0001B559D8A009D00001926F080E20
:100A500000010001B96F0001925102D0B4C0B9F099
:100A60007F0E00010001B8150001B7110001B61199
:100A7000D8B4F6D00001000E486E0001B60E476EE5
:100A800000010001B951000800010001B225366ED5
:100A90008DEC0BF038C04BF037C04AF036C049F04F
:100AA000CEEC16F0B6C060F0B7C061F0B8C062F02E
:100AB000B6C042F0B7C043F0B8C044F086EC13F0C3
:100AC00045C054F044C053F043C052F042C051F00E
:100AD000E7EC15F053C05CF052C05BF051C05AF027
:100AE00052EC17F05CC05FF05BC05EF05AC05DF086
:100AF000F5EC0EF05FC082F05EC081F05DC080F06A
:100B0000000E00010001836F000E00010001846FE0
:100B10003F0E00010001856F14EC13F0D8A017D030
:100B20000001000E00010001816F0001B60E0001FE
:100B3000806F000E00010001826F000E00010001B5
:100B4000836F3F0E00010001846FECEC16F0000192
:100B5000B9C092F00001936B92BF93070001D89047
:100B6000923793370001D89092379337040E0001E3
:100B70009227000E9323000E00019225F66E060EBA
:100B80009321F76EB6C042F0B7C043F0B8C044F04E
:100B900086EC13F00900F550425C0900F55043580B
:100BA0000900F55044580900F5504558D8A01CD00C
:100BB0000001000E00010001816F0001B60E00016E
:100BC000806FCD0E00010001826FCC0E000100018C
:100BD000836F3D0E00010001846FB0EC16F0000140
:100BE0000001B24BB32B3CD000010001B951040D00
:100BF000000EF324F66E060EF420F76EB6C042F037
:100C0000B7C043F0B8C044F086EC13F00900F550CB
:100C1000425C0900F55043580900F550445809005A
:100C2000F5504558D8B01CD00001000E000100015D
:100C3000816F0001B60E0001806F000E00010001FF
:100C4000826F200E00010001836F410E0001000140
:100C5000846FB0EC16F000010001B207D8A0B30712
:100C6000030E00010001AB150001926F000E0001A0
:100C70000001AC150001936F000193519211D8B49B
:100C80000AD08BC0D9FF8CC0DAFF2D0EDF6E0001B9
:100C900000018B4B8C2BB6C042F0B7C043F0B8C0FC
:100CA00044F086EC13F045C0B0F044C0AFF043C050
:100CB000AEF042C0ADF0ADC00FF0AEC010F0AFC0AE
:100CC00011F0B0C012F000010001B951040D000E86
:100CD000F324F66E060EF420F76E0900F5CF13F03C
:100CE0000900F5CF14F00900F5CF15F00A00F5CF93
:100CF00016F0EEEC14F00F50300F8BC0D9FF8CC003
:100D0000DAFFDF6E000100018B4B8C2BADC00FF0C2
:100D1000AEC010F0AFC011F0B0C012F00001000181
:100D2000B951040D000EF324F66E060EF420F76E92
:100D30000900F5CF13F00900F5CF14F00900F5CF45
:100D400015F00A00F5CF16F0B2EC15F012C0B0F0B5
:100D500011C0AFF010C0AEF00FC0ADF00001000147
:100D6000B551B411D8B4A7D08BC0D9FF8CC0DAFF6D
:100D70002E0EDF6E000100018B4B8C2B0001000159
:100D8000B95100010001B45F000E0001B9BFFF0EB0
:100D900000010001B55B72D000010001ACA31BD0C3
:100DA00000010001B051AD11AE11AF11D8A413D0A4
:100DB0000001926F000E00010001B96F0001925115
:100DC0000001B95100010001B46F0001B56B0001D1
:100DD000B4BFB5076AD0ADC00FF0AEC010F0AFC061
:100DE00011F0B0C012F000010001B951040D000E65
:100DF000F324F66E060EF420F76E0900F5CF13F01B
:100E00000900F5CF14F00900F5CF15F00A00F5CF71
:100E100016F0EEEC14F00F50300F8BC0D9FF8CC0E1
:100E2000DAFFDF6E000100018B4B8C2BADC00FF0A1
:100E3000AEC010F0AFC011F0B0C012F00001000160
:100E4000B951040D000EF324F66E060EF420F76E71
:100E50000900F5CF13F00900F5CF14F00900F5CF24
:100E600015F00A00F5CF16F0B2EC15F012C0B0F094
:100E700011C0AFF010C0AEF00FC0ADF00001000126
:100E8000B9070001B929D8B410D086D78BC0D9FFD3
:100E90008CC0DAFF300EDF6E000100018B4B8C2B13
:100EA00000010001B407D8A0B50700010001B55149
:100EB000B411D8A4EBD78BC0D9FF8CC0DAFF650E74
:100EC000DF6E000100018B4B8C2B00010001B3AFE2
:100ED0000DD000010001B26D0001B31FD8B0B32BDB
:100EE0008BC0D9FF8CC0DAFF2D0E05D08BC0D9FF87
:100EF0008CC0DAFF2B0EDF6E000100018B4B8C2BB8
:100F0000B2C016F0B3C017F0000E196E0A0E186EBC
:100F1000A6EC14F01650300F8BC0D9FF8CC0DAFF4E
:100F2000DF6E000100018B4B8C2BB2C00FF0B3C001
:100F300010F0000E126E0A0E116E74EC15F00F50C8
:100F4000300F8BC0D9FF8CC0DAFFC9D3000100017C
:100F5000ACA30FD100010001B3AF16D0010E000108
:100F60000001B2250001926F000E00010001B321C3
:100F70000001936F0001925100010001B45F000174
:100F8000935100010001B55BB6C042F0B7C043F019
:100F9000B8C044F086EC13F045C0B0F044C0AFF0E8
:100FA00043C0AEF042C0ADF00001926F000E0001F0
:100FB0000001B96F0001925100010001B9510A0A04
:100FC000D8B421D000010001B951040D000EF32462
:100FD000F66E060EF420F76E0900F55000010001D0
:100FE000AD5D0900F5500001AE590900F550000152
:100FF000AF590900F5500001B059D8A004D0000144
:101000000001B92BD9D700010001B951000100013D
:10101000B45F000E0001B9BFFF0E00010001B55B17
:1010200000010001B551800A800F0D0ED8B4B45DE7
:10103000D8B015D00001000E00010001816F000141
:10104000B60E0001806FB4C036F0B5EC0DF038C0BC
:1010500084F037C083F036C082F0ECEC16F0B4C0F8
:1010600036F08DEC0BF038C0A7F037C0A6F036C0D4
:10107000A5F00001000E00010001816F0001A50E26
:101080000001806FB6C060F0B7C061F0B8C062F018
:10109000ADC051F0AEC052F0AFC053F0B0C054F08C
:1010A000E7EC15F053C05CF052C05BF051C05AF051
:1010B00052EC17F05CC05FF05BC05EF05AC05DF0B0
:1010C000F5EC0EF05FC084F05EC083F05DC082F08E
:1010D000B0EC16F0A5C042F0A6C043F0A7C044F0A3
:1010E00086EC13F045C0B0F044C0AFF043C0AEF0A2
:1010F00042C0ADF01FD0ADC00FF0AEC010F0AFC019
:1011000011F0B0C012F00A0E136E000E146E000E35
:10111000156E000E166EEEEC14F012C0B0F011C099
:10112000AFF010C0AEF00FC0ADF000010001B40789
:10113000D8A0B50700010001B551B411D8B438D01A
:10114000ADC00FF0AEC010F0AFC011F0B0C012F0E3
:101150000A0E136E000E146E000E156E000E166E43
:10116000B2EC15F012500F1010101110D8A420D0AE
:10117000C2D700010001B551800A800F0D0ED8B40E
:10118000B45DD8B015D00001000E00010001816FE0
:101190000001B60E0001806FB4C036F0B5EC0DF062
:1011A00038C084F037C083F036C082F0ECEC16F023
:1011B00000010001B351800A800F0A0ED8B4B25D5D
:1011C000D8B022D07F0E00010001B8150001B71180
:1011D0000001B611D8B46DD0B6C042F0B7C043F02C
:1011E000B8C044F086EC13F0455042104310441050
:1011F000D8A45FD000010001B351800A800F020E15
:10120000D8B4B25DD8A055D0A8C080F0A9C081F0F4
:10121000AAC082F0700E00010001836F890E0001E8
:101220000001846F400E00010001856F14EC13F083
:10123000D8B003D00001F70E02D00001F80E000173
:10124000B227FF0E0001B323B2C036F08DEC0BF0D5
:1012500038C0AAF037C0A9F036C0A8F0B6C00FF069
:10126000B7C010F0B8C011F0A8C012F0A9C013F0B8
:10127000AAC014F08AEC10F012C09EF011C09DF0CC
:1012800010C09CF00FC09BF09BC0ADF09CC0AEF0B6
:101290009DC0AFF09EC0B0F0000E00010001B66F1F
:1012A000000E00010001B76F000E00010001B86FD1
:1012B00032D0B6C042F0B7C043F0B8C044F086ECBC
:1012C00013F045C0B0F044C0AFF043C0AEF042C030
:1012D000ADF00001000E00010001876F0001B60EA5
:1012E0000001866FADC051F0AEC052F0AFC053F0F8
:1012F000B0C054F0E7EC15F053C08AF052C089F04A
:1013000051C088F06EEC16F0000E00010001B36FC2
:10131000000E0001B26F0001926F010E000100018A
:10132000B96F0001925100010001B9510A0AD8B405
:1013300021D000010001B951040D000EF324F66E16
:10134000060EF420F76E0900F55000010001AD5DB6
:101350000900F5500001AE590900F5500001AF59E0
:101360000900F5500001B059D8A004D000010001D7
:10137000B92BD9D7030E00010001AB150001926F04
:10138000000E00010001AC150001936F00019351A4
:101390009211D8B445D08BC0D9FF8CC0DAFF2D0E86
:1013A0003AD0ADC00FF0AEC010F0AFC011F0B0C079
:1013B00012F000010001B951040D000EF324F66E85
:1013C000060EF420F76E0900F5CF13F00900F5CFF3
:1013D00014F00900F5CF15F00A00F5CF16F0EEEC89
:1013E00014F00FC0A1F010C0A2F0A1C00FF0A2C075
:1013F00010F0000E126E0A0E116E4BEC16F00FC0BC
:10140000A1F010C0A2F000010001A151300F8BC06B
:10141000D9FF8CC0DAFFDF6E000100018B4B8C2BF3
:1014200000010001B9070001B929D8B410D0B9D71B
:101430008BC0D9FF8CC0DAFF300EDF6E00010001D7
:101440008B4B8C2B00010001B207D8A0B307000121
:101450000001B351800A800F010ED8B4B25DD8B03C
:10146000E7D700010001B551800A800F090ED8B4FA
:10147000B45DD8A009D00001926F080E00010001F0
:10148000B96F0001925102D0B4C0B9F0000100015F
:10149000B95100010001B45F000E0001B9BFFF0E99
:1014A00000010001B55B00010001B951D8B40AD0B8
:1014B0008BC0D9FF8CC0DAFF2E0EDF6E0001000159
:1014C0008B4B8C2BB9C036F08DEC0BF038C09AF0FA
:1014D00037C099F036C098F0B6C028F0B7C029F0F0
:1014E000B8C02AF098C025F099C026F09AC027F01D
:1014F0001BEC11F027C044F026C043F025C042F099
:1015000086EC13F045C0B0F044C0AFF043C0AEF07D
:1015100042C0ADF067D0ADC00FF0AEC010F0AFC0AC
:1015200011F0B0C012F000010001B951040D000E1D
:10153000F324F66E060EF420F76E0900F5CF13F0D3
:101540000900F5CF14F00900F5CF15F00A00F5CF2A
:1015500016F0EEEC14F00FC0A3F010C0A4F0A3C07E
:101560000FF0A4C010F0000E126E0A0E116E4BECBC
:1015700016F00FC0A3F010C0A4F000010001A351A9
:10158000300F8BC0D9FF8CC0DAFFDF6E0001000185
:101590008B4B8C2BADC00FF0AEC010F0AFC011F074
:1015A000B0C012F000010001B951040D000EF32487
:1015B000F66E060EF420F76E0900F5CF13F0090061
:1015C000F5CF14F00900F5CF15F00A00F5CF16F0AD
:1015D000B2EC15F012C0B0F011C0AFF010C0AEF018
:1015E0000FC0ADF000010001B9070001B929D8B45E
:1015F00010D091D78BC0D9FF8CC0DAFF300EDF6ED0
:10160000000100018B4B8C2B00010001B407D8A016
:10161000B50700010001B551B411D8B465D0EAD7BF
:1016200000010001B551B411D8A40CD00001000193
:10163000B051AD11AE11AF11D8A404D0000100011A
:10164000B44BB52B800E00010001B9BF7F0E926F25
:1016500000010001B45100010001B95D0001000169
:10166000B551800A00019259D8B003D0B4C0B9F086
:1016700020D000010001B551800A0001926F0001E5
:101680000001B95100010001B45D800E00010001AC
:10169000B9BF7F0E00019259D8B00BD000010001F4
:1016A000B95100010001B46F0001B56B0001B4BF76
:1016B000B507030E00010001AB150001926F000E8B
:1016C00000010001AC150001936F000193519211CC
:1016D000D8B40AD08BC0D9FF8CC0DAFF2D0EDF6ED4
:1016E000000100018B4B8C2B00018DC0F6FF000127
:1016F0008EC0F7FF000100018D4B8E2B080000010A
:10170000F5CFB9F00001B96752EF03F08BC0D9FFF4
:101710008CC0DAFF000EDF6E120036AE08D1366CD8
:101720003650800A120FD8A09DD0000E226E030EF4
:10173000216E000E196E0A0E186E000E126E640EE7
:10174000116E36500F6E106A0FBE100674EC15F055
:101750000FC016F010C017F0A6EC14F0090E1624F6
:101760001F6E000E1720206E0AEC17F0280E1F24A3
:10177000F66E060E2020F76E0900F5CF39F009004D
:10178000F5CF3AF00900F5CF3BF03BC02AF03AC064
:1017900029F039C028F0000E226E030E216E000ED3
:1017A000196E640E186E3650166E176A16BE17063E
:1017B000A6EC14F0120E16241F6E000E1720206ED9
:1017C0000AEC17F0280E1F24F66E060E2020F76E86
:1017D0000900F5CF3CF00900F5CF3DF00900F5CF49
:1017E0003EF03EC027F03DC026F03CC025F01BEC8B
:1017F00011F027C041F026C040F025C03FF03FC0A7
:1018000025F040C026F041C027F0000E226E030EE6
:10181000216E000E126E0A0E116E36500F6E106A97
:101820000FBE100674EC15F00FC01FF010C020F0B2
:101830000AEC17F0280E1F24F66E060E2020F76E15
:101840000900F5CF39F00900F5CF3AF00900F5CFDE
:101850003BF03BC02AF03AC029F039C028F01BEC1D
:1018600011F064D13650800A750FD8A059D0000EFF
:10187000226E030E216E000E196E0A0E186E36507F
:10188000166E176A16BE1706A6EC14F0090E16247B
:101890001F6E000E1720206E0AEC17F0280E1F2472
:1018A000F66E060E2020F76E0900F5CF39F009001C
:1018B000F5CF3AF00900F5CF3BF03BC027F03AC036
:1018C00026F039C025F0000E226E030E216E000EA8
:1018D000126E0A0E116E36500F6E106A0FBE100691
:1018E00074EC15F00FC01FF010C020F00AEC17F0D8
:1018F000280E1F24F66E060E2020F76E0900F5CF85
:101900003CF00900F5CF3DF00900F5CF3EF03EC0B8
:101910002AF03DC029F03CC028F01BEC11F006D1A4
:101920003650030D280EF324F66E060E0CD13650F9
:10193000800A120FD8A09DD0000E226E030E216ED9
:10194000000E196E0A0E186E000E126E640E116EE5
:1019500036500F6E106A0FBE100674EC15F00FC0F3
:1019600016F010C017F0A6EC14F0090E16241F6E26
:10197000000E1720206E0AEC17F04F0E1F24F66E93
:10198000060E2020F76E0900F5CF39F00900F5CFDB
:101990003AF00900F5CF3BF03BC02AF03AC029F0FD
:1019A00039C028F0000E226E030E216E000E196E53
:1019B000640E186E3650166E176A16BE1706A6EC21
:1019C00014F0120E16241F6E000E1720206E0AEC63
:1019D00017F04F0E1F24F66E060E2020F76E09003A
:1019E000F5CF3CF00900F5CF3DF00900F5CF3EF012
:1019F0003EC027F03DC026F03CC025F01BEC11F0A6
:101A000027C041F026C040F025C03FF03FC025F080
:101A100040C026F041C027F0000E226E030E216E5A
:101A2000000E126E0A0E116E36500F6E106A0FBE47
:101A3000100674EC15F00FC01FF010C020F00AEC77
:101A400017F04F0E1F24F66E060E2020F76E0900C9
:101A5000F5CF39F00900F5CF3AF00900F5CF3BF0AA
:101A60003BC02AF03AC029F039C028F01BEC11F035
:101A70005DD03650800A750FD8A05FD0000E226E60
:101A8000030E216E000E196E0A0E186E3650166E79
:101A9000176A16BE1706A6EC14F0090E16241F6E60
:101AA000000E1720206E0AEC17F04F0E1F24F66E62
:101AB000060E2020F76E0900F5CF39F00900F5CFAA
:101AC0003AF00900F5CF3BF03BC027F03AC026F0D2
:101AD00039C025F0000E226E030E216E000E126E2C
:101AE0000A0E116E36500F6E106A0FBE100674EC9F
:101AF00015F00FC01FF010C020F00AEC17F04F0EC9
:101B00001F24F66E060E2020F76E0900F5CF3CF07C
:101B10000900F5CF3DF00900F5CF3EF03EC02AF0B8
:101B20003DC029F03CC028F01BEC11F027C038F074
:101B300026C037F025C036F017D03650030D4F0EB3
:101B4000F324F66E060EF420F76E0900F5CF39F097
:101B50000900F5CF3AF00900F5CF3BF03BC038F073
:101B60003AC037F039C036F012006D0E3664ABD093
:101B7000000E226E030E216E000E196E0A0E186EF4
:101B8000000E126E640E116E36C00FF0106A74EC07
:101B900015F00FC016F010C017F0A6EC14F0090EE7
:101BA00016241F6E000E1720206E0AEC17F0280E68
:101BB0001F24F66E060E2020F76E0900F5CF39F0CF
:101BC0000900F5CF3AF00900F5CF3BF03BC02AF011
:101BD0003AC029F039C028F0000E226E030E216EA3
:101BE000000E196E640E186E36C016F0176AA6EC59
:101BF00014F0120E16241F6E000E1720206E0AEC31
:101C000017F0280E1F24F66E060E2020F76E09002E
:101C1000F5CF3CF00900F5CF3DF00900F5CF3EF0DF
:101C20003EC027F03DC026F03CC025F01BEC11F073
:101C300027C044F026C043F025C042F0000E226EBB
:101C4000030E216E000E126E0A0E116E36C00FF0DA
:101C5000106A74EC15F00FC01FF010C020F00AECF1
:101C600017F0280E1F24F66E060E2020F76E0900CE
:101C7000F5CF39F00900F5CF3AF00900F5CF3BF088
:101C80003BC02AF03AC029F039C028F042C025F004
:101C900043C026F044C027F01BEC11F027C041F0F0
:101CA00026C040F025C03FF03FC025F040C026F0E0
:101CB00041C027F0000E286E000E296E3F0E2A6EDE
:101CC0001BEC11F08BD00A0E366469D0000E226E28
:101CD000030E216E000E126E0A0E116E36C00FF04A
:101CE000106A74EC15F00FC01FF010C020F00AEC61
:101CF00017F0280E1F24F66E060E2020F76E09003E
:101D0000F5CF39F00900F5CF3AF00900F5CF3BF0F7
:101D10003BC02AF03AC029F039C028F0000E226EEC
:101D2000030E216E000E196E0A0E186E36C016F0E4
:101D3000176AA6EC14F0090E16241F6E000E172069
:101D4000206E0AEC17F0280E1F24F66E060E2020D7
:101D5000F76E0900F5CF3CF00900F5CF3DF0090022
:101D6000F5CF3EF03EC027F03DC026F03CC025F048
:101D70001BEC11F027C044F026C043F025C042F010
:101D800042C025F043C026F044C027F0000E286E64
:101D9000000E296E3F0E2A6E1BEC11F01FD036503C
:101DA000030D280EF324F66E060EF420F76E0900DC
:101DB000F5CF39F00900F5CF3AF00900F5CF3BF047
:101DC0003BC027F03AC026F039C025F0000E286E3F
:101DD000000E296E3F0E2A6E1BEC11F027C038F062
:101DE00026C037F025C036F012000F0E636E5DC0BE
:101DF00064F05EC065F05FC066F06328676E04D073
:101E0000D890663265326432672EFAD764506A6EB3
:101E10000F0E636E60C064F061C065F062C066F072
:101E20006328676E04D0D890663265326432672EBC
:101E3000FAD76450696E6A50D8B40BD069506A60A2
:101E40000FD06A5000086924636E190E635CD8A035
:101E500007D060C05DF061C05EF062C05FF0AAD0E4
:101E60006950D8B40BD06A5069600FD0695000082F
:101E70006A24636E190E635CD8A007D05DC05DF064
:101E80005EC05EF05FC05FF095D0636E060E686E58
:101E900063505FBE688E62BE688C5E8EFF0E5D16FC
:101EA000FF0E5E16000E5F16618EFF0E6016FF0EAF
:101EB0006116000E621669506A6018D0D8906036BC
:101EC00061366236690669506A18D8B40BD0680664
:101ED0006850070BD8B406D0F1D7D8905F325E3285
:101EE0005D326A2A69506A62F8D71AD06A5069600E
:101EF00017D0D8905D365E365F366A0669506A182C
:101F0000D8B40BD068066850070BD8B406D0F1D708
:101F1000D890623261326032692A69506A62F8D7B9
:101F200068AE0CD0FF0E5D1AFF0E5E1AFF0E5F1A30
:101F3000010E5D26000E5E22000E5F2268AC0CD002
:101F4000FF0E601AFF0E611AFF0E621A010E602664
:101F5000000E6122000E6222636E000E686E6350F6
:101F60005D5060265E5061225F50622262AE10D0EA
:101F7000FF0E601AFF0E611AFF0E621A010E602634
:101F8000000E6122000E6222636E010E686E6350C5
:101F900060C00FF061C010F062C011F06AC012F0B2
:101FA00068C013F0F6EC13F011C05FF010C05EF0E3
:101FB0000FC05DF01200000E00010001D66F000E90
:101FC0000001D56F89EC17F09CEC12F0F28EF28CC8
:101FD0009D8C9E9CC28200010001D851D711D8B4BB
:101FE000F9D7000E00010001D86F000E0001D76F75
:101FF000C45000010001D66FC3500001D56F000E20
:10200000286EA00E296E400E2A6ED5C017F0D6C0DD
:1020100018F027EC17F019C027F018C026F017C0E9
:1020200025F01BEC11F027C038F026C037F025C092
:1020300036F0000E396E800E3A6E440E3B6EA3EC05
:1020400011F038C0D4F037C0D3F036C0D2F0060E4D
:102050001B6E760E1A6E19EC16F00001BA6FC00EE8
:10206000126E0001BA510001BB6F010E136E000128
:10207000BB510001BC6F000E146E0001BC51000189
:10208000BD6F010E156E0001BD5152EC14F0000140
:10209000000E000100018C6F0001BE0E00018B6F6D
:1020A000060E000100018E6F860E00018D6FD2C0FA
:1020B0008FF0D3C090F0D4C091F047EC03F0000152
:1020C000000E1B6E0001BE0E1A6E19EC16F0000118
:1020D000BA6FC80E0F6E0001BA5177EC17F000010D
:1020E000BA6F010E126E0001BA510001BB6F010EF2
:1020F000136E0001BB510001BC6F010E146E000194
:10210000BC510001BD6F010E156E0001BD5152ECB6
:1021100014F060D70F0E156E0FC016F010C017F038
:1021200011C018F01528196E04D0D8901832173243
:102130001632192EFAD716501F6E1F6601D061D0C5
:102140000F0E156E12C016F013C017F014C018F061
:102150001528196E04D0D890183217321632192E5D
:10216000FAD716501E6E1E6601D04BD0108EFF0E91
:102170000F16FF0E1016000E1116138EFF0E1216FC
:10218000FF0E1316000E1416000E1A6E000E1B6EB4
:10219000000E1C6E000E1D6E7F0E1F5E1E50980FEF
:1021A0001F5E156E180E1E6E1550D8901A361B360F
:1021B0001C361D3612500F5C135010581450115815
:1021C000D8A007D012500F5E1350105A1450115A55
:1021D0001A80D8900F36103611361E2EE6D71FAE55
:1021E0000DD01F50800A970FD8A00BD0D8901D3269
:1021F0001C321B321A321F3EF9D714D0170E1F643F
:102200000FD0000E0F6E000E106E000E116E000E3D
:10221000126E10D0D8901A361B361C361D361F068B
:102220001F66F8D71AC00FF01BC010F01CC011F0C9
:102230001DC012F012000F0E2B6E25C02CF026C010
:102240002DF027C02EF02B282F6E04D0D8902E32E0
:102250002D322C322F2EFAD72C50306E306601D012
:1022600015D00F0E2B6E28C02CF029C02DF02AC0DF
:102270002EF02B282F6E04D0D8902E322D322C32F7
:102280002F2EFAD72C50356E356607D0000E256EEE
:10229000000E266E000E276E55D035507B0F30266F
:1022A00027C035F02A50351A800E3516268E298E15
:1022B000FF0E2816FF0E2916000E2A16000E316E8C
:1022C000000E326E000E336E2B6E070E346E2B50E6
:1022D00025A006D028503126295032222A503322F8
:1022E000D890273226322532D890283629362A36F9
:1022F000342EEED72B6E090E346E2B5025A006D04F
:1023000028503126295032222A503322D8902732A1
:1023100026322532D890333232323132342EEED753
:1023200031C00FF032C010F033C011F030C012F0E5
:1023300035C013F0F6EC13F011C027F010C026F0F2
:102340000FC025F012000F0E3C6E36C03DF037C0B6
:102350003EF038C03FF03C28406E04D0D8903F3269
:102360003E323D32402EFAD73D50456E456601D093
:1023700015D00F0E3C6E39C03DF03AC03EF03BC068
:102380003FF03C28406E04D0D8903F323E323D3280
:10239000402EFAD73D50466E466607D0000E366E88
:1023A000000E376E000E386E4CD0000E426E000EDE
:1023B000436E000E446E4650890F455E38C046F0AD
:1023C0003B50461A800E4616378EFF0E3616FF0E0D
:1023D0003716000E38163A8EFF0E3916FF0E3A16D3
:1023E000000E3B163C6E180E416E3C50D8904236A3
:1023F000433644363950365C3A5037583B5038589B
:10240000D8A007D03950365E3A50375A3B50385A28
:102410004280D890363637363836412EE7D742C01C
:102420000FF043C010F044C011F045C012F046C098
:1024300013F0F6EC13F011C038F010C037F00FC0F5
:1024400036F01200113412341B6E1B6601D05AD0C4
:10245000143415341A6E1A6601D054D0118EFF0E42
:102460000F16FF0E1016FF0E1116000E1216148E08
:10247000FF0E1216FF0E1316FF0E1416000E151681
:10248000000E166E000E176E000E186E000E196EFE
:102490007F0E1B5E1A50A00F1B5E156E200E1A6E6B
:1024A0001550D890163617361836193612500F5C5C
:1024B000135010581450115815501258D8A009D064
:1024C00012500F5E1350105A1450115A1550125AD0
:1024D0001680D8900F361036113612361A2EE1D7E4
:1024E0001BAE0DD01B50800A9F0FD8A00BD0D890E8
:1024F00019321832173216321B3EF9D714D01F0E7C
:102500001B640FD0000E0F6E000E106E000E116EC9
:10251000000E126E10D0D8901636173618361936AF
:102520001B061B66F8D716C00FF017C010F018C0B6
:1025300011F019C012F01200000E956E000E836E9D
:10254000838E1A6E640E0F6E1A5077EC17F01A6EA7
:10255000200E126E1A501B6E010E136E1B501C6E55
:10256000000E146E1C501D6E000E156E1D5052ECA8
:1025700014F01A6E280E126E1A501B6E010E136E96
:102580001B501C6E000E146E1C501D6E010E156E3D
:102590001D5052EC14F01A6E280E126E1A501B6E5B
:1025A000010E136E1B501C6E000E146E1C501D6E1F
:1025B000010E156E1D5052EC14F01A6E060E126EBE
:1025C0001A501B6E010E136E1B501C6E000E146E03
:1025D0001C501D6E010E156E1D5052EC14F01A6E3B
:1025E0000C0E126E1A501B6E010E136E1B501C6ED9
:1025F000000E146E1C501D6E010E156E1D5052EC17
:1026000014F01A6E020E126E1A501B6E010E136E2B
:102610001B501C6E000E146E1C501D6E010E156EAC
:102620001D5052EC14F012000001000182AF1DD0C9
:10263000000180C06BF0000181C06CF0000182C01D
:102640006DF06B1E6C1E6D1E6B2A000E6C226D22CF
:10265000000E6B2400010001806F000E6C20000151
:10266000816F800E6D200001826F0001000185AF37
:102670001DD0000183C06BF0000184C06CF000012C
:1026800085C06DF06B1E6C1E6D1E6B2A000E6C22D9
:102690006D22000E6B2400010001836F000E6C2080
:1026A0000001846F800E6D200001856F000E000117
:1026B0000001801B000E00010001811B800E000143
:1026C0000001821B000E00010001831B000E0001AF
:1026D0000001841B800E00010001851B0001000128
:1026E000835100010001805D00010001845100015F
:1026F000000181590001000185510001000182594A
:10270000D8B002D0D89001D0D88012000F0E466EFB
:1027100042C047F043C048F044C049F046284A6EE2
:1027200004D0D8904932483247324A2EFAD747501F
:10273000506E506601D035D0170E466E42C047F03D
:1027400043C048F044C049F046284A6E04D0D890AF
:102750004932483247324A2EFAD747504B6E438EA1
:10276000FF0E4216FF0E4316000E441642504C6EEA
:1027700043504D6E44504E6E4F6A8E0E505E50AEBA
:102780000DD05050800A8F0FD8A00BD0D8904F3268
:102790004E324D324C32503EF9D714D0170E5064A1
:1027A0000FD0000E426E000E436E000E446E000EFF
:1027B000456E1BD0D8904C364D364E364F365006AF
:1027C0005066F8D74B50D8B408D04F1E4E1E4D1E41
:1027D0004C6C000E4D224E224F224CC042F04DC098
:1027E00043F04EC044F04FC045F012001250D8B430
:1027F00005D00F5010101110D8A40CD0000E0F6E81
:10280000000E106E000E116E4CD0122AD8901132AC
:1028100010320F32000E0F14146E000E1014156ECD
:10282000FE0E1114166E145015101610D8B40CD0DC
:10283000ECD7122A010E0F26000E1022000E1122D4
:10284000D890113210320F32000E0F14146E000E99
:102850001014156EFF0E1114166E1450151016106C
:10286000D8B406D0E6D71206D8900F3610361136F7
:1028700010AEF9D712A0109ED89012321250166ED8
:10288000156A146A14500F121550101216501112B6
:102890001350D8A4118E0FC00FF010C010F011C04B
:1028A00011F012001450D8B428D00F0E956E8398F2
:1028B000838A166E010E176E16501CD03DEC17F071
:1028C000166E010E0F6E165098EC17F0838C166E74
:1028D000010E0F6E165098EC17F0000E83B6010E25
:1028E000176E166E010E0F6E165098EC17F0839C43
:1028F0003DEC17F01766E2D706D0166E0A0E0F6E83
:10290000165077EC17F0000E956E1350D8B402D025
:10291000839801D08388839A12380F0B186E8350E6
:10292000F00B196E19501810836E3DEC17F015500E
:10293000D8B40BD012500F0B186E8350F00B196ED9
:1029400019501810836E3DEC17F012001A6E000E2D
:102950001C6E1A5019AE08D0186C191ED8B0192A5E
:102960001A6E010E1C6E1A5017AE06D0166C171E8A
:10297000D8B0172A010E1C1A000E1E6E000E1D6E16
:1029800019501810D8B41ED01A6E010E1B6E1A50B2
:1029900004D0D890183619361B2A19AEFAD7D89019
:1029A0001D361E361850165C19501758D8A005D081
:1029B0001850165E1950175A1D80D89019321832C7
:1029C0001B2EEDD71C50D8B404D01D6C1E1ED8B0E1
:1029D0001E2A1DC016F01EC017F01200000E186E41
:1029E000000E196E000E1A6E000E1B6E165013109C
:1029F00014101510D8B42CD0176E010E1C6E175081
:102A000006D0D89013361436153616361C2A16AE54
:102A1000F8D7D890183619361A361B3613500F5C73
:102A2000145010581550115816501258D8A009D0EB
:102A300013500F5E1450105A1550115A1650125A56
:102A40001880D89016321532143213321C2EE1D76A
:102A500018C00FF019C010F01AC011F01BC012F00E
:102A600012000600E9CF03F0EACF04F0E1CF05F051
:102A7000E2CF06F0D9CF07F0DACF08F0F3CF09F0B4
:102A8000F4CF0AF0F6CF0BF0F7CF0CF0F8CF0DF043
:102A9000F5CF0EF09EAC01D001D009D0000E0001A0
:102AA0000001D86F010E0001D76F9E9C00D00EC0B0
:102AB000F5FF0DC0F8FF0CC0F7FF0BC0F6FF0AC012
:102AC000F4FF09C0F3FF08C0DAFF07C0D9FF06C052
:102AD000E2FF05C0E1FF04C0EAFF03C0E9FF02C056
:102AE000FBFF01C0FAFF1100136E000E156E1350AC
:102AF00010AE08D00F6C101ED8B0102A136E010E45
:102B0000156E135012AE04D0116C121ED8B0122ADA
:102B100012501110D8B41AD0136E010E146E135047
:102B200004D0D89011361236142A12AEFAD71150AA
:102B30000F5C12501058D8A004D011500F5E1250E4
:102B4000105AD89012321132142EF1D71550D8B431
:102B500004D00F6C101ED8B0102A0FC00FF010C098
:102B600010F012001650131014101510D8B426D0FF
:102B7000176E010E186E175006D0D8901336143603
:102B800015361636182A16AEF8D713500F5C1450A7
:102B900010581550115816501258D8A008D013507C
:102BA0000F5E1450105A1550115A1650125AD890E0
:102BB0001632153214321332182EE7D70FC00FF029
:102BC00010C010F011C011F012C012F01200556EBA
:102BD0008E0E596E555006D0D89054325332523220
:102BE0005132592A000E5114556E000E5214566E71
:102BF000000E5314576EFF0E5414586E5850551053
:102C000056105710D8A4E8D751C00FF052C010F09A
:102C100053C011F059C012F0556E000E136E55508E
:102C2000F6EC13F011C053F010C052F00FC051F089
:102C300012001FD01A50F66EE96E050EEA6E1B5098
:102C4000EA6403D0EA6EEF5003D0F76E0800F55047
:102C5000126E1C6E000E136E1C501D6E010E146E53
:102C60001D501E6E010E156E1E5052EC14F01A4AC5
:102C70001B2A1A50F66EE96E050EEA6E1B50EA64C6
:102C800003D0EA6EEF5003D0F76E0800F55000094C
:102C9000D8B41200CFD712501110D8B41AD0136E76
:102CA000010E146E135004D0D89011361236142A27
:102CB00012AEFAD711500F5C12501058D8A004D0A1
:102CC00011500F5E1250105AD89012321132142E39
:102CD000F1D70FC00FF010C010F0120086C0D9FF5E
:102CE00087C0DAFF0001DECF80F00001DECF81F087
:102CF0000001DDCF82F088C083F089C084F08AC0F3
:102D000085F08FEC16F086C0D9FF87C0DAFF80C04F
:102D1000DEFF81C0DEFF82C0DDFFDD521200000E4B
:102D200000010001831B000E00010001841B800EC6
:102D300000010001851B80C05DF081C05EF082C093
:102D40005FF083C060F084C061F085C062F0F5EC94
:102D50000EF05FC082F05EC081F05DC080F01200B6
:102D600080C0D9FF81C0DAFFDECF25F0DECF26F0AC
:102D7000DDCF27F082C028F083C029F084C02AF07C
:102D80001BEC11F080C0D9FF81C0DAFF25C0DEFF47
:102D900026C0DEFF27C0DDFFDD52120047C0D9FF8D
:102DA00048C0DAFFDECF36F0DECF37F0DDCF38F0C7
:102DB00049C039F04AC03AF04BC03BF0A3EC11F0E7
:102DC00047C0D9FF48C0DAFF36C0DEFF37C0DEFF9C
:102DD00038C0DDFFDD52120080C0D9FF81C0DAFFAC
:102DE000DECF5DF0DECF5EF0DDCF5FF082C060F061
:102DF00083C061F084C062F0F5EC0EF080C0D9FFB2
:102E000081C0DAFF5DC0DEFF5EC0DEFF5FC0DDFFB8
:102E1000DD5212001F502102F3CF23F0F4CF24F033
:102E20001F502202F3CFF4FFF36AF3502326F4502D
:102E3000242220502102F3CFF4FFF36AF35023261B
:102E4000F450242223C01FF024C020F0120017C029
:102E50000FF018C010F0116A1A6E8E0E126E1A5012
:102E60001B6E000E136E1B50F6EC13F011C019F020
:102E700010C018F00FC017F01200116E010E0F6E87
:102E8000115098EC17F0838C116E010E0F6E1150DB
:102E900098EC17F0839C116E010E0F6E115098EC98
:102EA00017F012007F0E5C145B105A10D8B406D0D5
:102EB000000E5A1A000E5B1A800E5C1A5AC05AF0A5
:102EC0005BC05BF05CC05CF01200106E000E116E17
:102ED00010503A0E0F6007D02F0E0F6404D0106E02
:102EE000010E116E105011C010F010301200106E53
:102EF000000E6E6E105008D0106EF50E706E1050F1
:102F000000F0F52FFDD76E2A0F506E5CD8B012007E
:102F1000F3D7C29AC298C296C294000EC16EC08EF8
:102F2000C09AC088C096C084C092C090C28012006F
:102F3000106E000E6F6E105001D06F2A0F506F5C34
:102F4000D8B01200FAD70001D86BD76B6F6A6E6ADF
:0A2F5000000EF86E0001DBEF0FF039
:020000040020DA
:08000000FFFFFFFFFFFFFFFF00
:020000040030CA
:0E000000FF081F1EFF8181FF0FC00FE00F40A1
:00000001FF
