:0400000020EF05F0F8
:100600004D79206D65737361676520746F20796F14
:1006100075203A20486176652061204D65727279B7
:10062000204368726973746D617320616E64206128
:10063000204861707079204E65772059656172009D
:100640000000000E956E000E836E838E096E200EE4
:10065000016E09500A6E010E026E0A500B6E010EF9
:10066000036E0B500C6E000E046E0C50EEEC03F09B
:10067000096E200E016E09500A6E010E026E0A50BC
:100680000B6E010E036E0B500C6E010E046E0C50BF
:10069000EEEC03F0096E060E016E09500A6E010EB3
:1006A000026E0A500B6E010E036E0B500C6E010EA3
:1006B000046E0C50EEEC03F0096E0C0E016E095046
:1006C0000A6E010E026E0A500B6E010E036E0B5085
:1006D0000C6E010E046E0C50EEEC03F0096E020E6F
:1006E000016E09500A6E010E026E0A500B6E010E69
:1006F000036E0B500C6E010E046E0C50EEEC03F00A
:10070000096E010E016E09500A6E010E026E0A504A
:100710000B6E010E036E0B500C6E010E046E0C502E
:10072000EEEC03F01200000EF66E060EF76E20EEF1
:1007300080F0400E0900F5CFDEFFE82EFBD7D7ECA6
:1007400004F00001000E046E0001800E036E0E6EB8
:10075000010E056E0E500F6E000E066E0F5074ECFB
:1007600004F00001000E066E0001C00E056E0E6E54
:10077000010E076E0E500F6E000E086E0F5033EC18
:1007800004F021EC03F00001000E0A6E0001C00E1F
:10079000096EA6EC04F00E6E180E016E0E500F6E70
:1007A000010E026E0F50106E010E036E1050116E8E
:1007B000010E046E1150EEEC03F0DD0E0E6EC60E4F
:1007C000E82EFED70E2EFCD700F0DD0E0E6EC60E04
:1007D000E82EFED70E2EFCD700F0DDD70350D8B49C
:1007E00017D00F0E956E8398838A056E010E066EE4
:1007F00005500BD000F0838C00F0000E83B6010E84
:10080000066E00F0839C08EC05F00666F3D708D06E
:100810001A0E056EF80EE82EFED7052EFCD700F056
:10082000000E956E0250D8B402D0839801D0838810
:10083000839A01380F0B076E8350F00B086E085037
:100840000710836E08EC05F00450D8B40BD00150AB
:100850000F0B076E8350F00B086E08500710836E65
:1008600008EC05F012001AEC05F002D014EC05F0CB
:10087000096EA00E026E0950C5EC04F00009D8A460
:10088000F5D707C002F0C5EC04F008C002F0C5ECD3
:1008900004F014EC05F0096EA10E026E0950C5ECCF
:1008A00004F0000E0B6E000E0A6E0B50800A800FD3
:1008B000400ED8B40A5CD8B012D0096E010E026E98
:1008C0000950E6EC04F00A500524D96E0B500620BE
:1008D000DA6EF2EC04F0DF6E0A4A0B2AE6D7FDEC82
:1008E00004F00EEC05F012001AEC05F002D014EC46
:1008F00005F0076EA00E026E0750C5EC04F000096B
:10090000D8A4F5D705C002F0C5EC04F006C002F08B
:10091000C5EC04F0000E096E000E086E0950800A46
:10092000800F400ED8B4085CD8B00DD00850032416
:10093000D96E09500420DA6EDF50026EC5EC04F067
:10094000084A092AEBD70EEC05F0120016D009C0B0
:10095000D9FF0AC0DAFFDF50016E0B6E000E026E87
:100960000B500C6E010E036E0C500D6E010E046EDA
:100970000D50EEEC03F0094A0A2A09C0D9FF0AC05B
:10098000DAFFDF50D8B41200E2D7FDEC04F002C069
:10099000C9FFC6AE02D0010E09D0C7B0FED7FDEC2C
:1009A00004F0C5AC02D0020E01D0000E1200D388B4
:1009B000D38AD38CC68AC650F00B0809C66EC78C82
:1009C000C78E94869488040EC86E12000250D8B464
:1009D00002D0C59A01D0C58AFDEC04F0C588FDECB3
:1009E00004F01200FDEC04F0C586C5B6FED7C7A022
:1009F000FED7C9CF04F004501200C730E832010B13
:100A0000016EC5501F0B01100009D8B41200F5D7B4
:100A100000F0838C00F0839C00F01200FDEC04F0E9
:100A2000C584C5A41200FDD7FDEC04F0C582C5A2A3
:100A30001200FDD7FDEC04F0C580C5A01200FDD763
:0A0A4000000EF86E000193EF03F0C2
:020000040020DA
:08000000FFFFFFFFFFFFFFFF00
:020000040030CA
:0E000000FF081F1EFF8181FF0FC00FE00F40A1
:00000001FF
