:040000000AEF00F013
:10000800FACF02F0FBCF03F0DCED00F02AEF01F0AD
:10001800106E000E116E10509380939292881DEC12
:1000280001F0B5D0D59ED580D582D584819281B096
:10003800FED7040E106E3D0EE82EFED7102EFCD70C
:1000480000D081A0FED7040E106E3D0EE82EFED71C
:10005800102EFCD700D0818296D081B0FED7040E36
:10006800106E3D0EE82EFED7102EFCD700D081A0D2
:10007800FED7040E106E3D0EE82EFED7102EFCD7CC
:1000880000D0F294D58E106E020E7FD081B0FED7CC
:10009800040E106E3D0EE82EFED7102EFCD700D0B1
:1000A80081A0FED7040E106E3D0EE82EFED7102E4E
:1000B800FCD700D0D59EF294818280A803D0106E20
:1000C800000E63D0106E030E60D081B0FED7040E10
:1000D800106E3D0EE82EFED7102EFCD700D0106E05
:1000E800040E53D0D58E040E106E3D0EE82EFED7AA
:1000F800102EFCD700D0000E136E000E126E09D021
:100108001450D8B406D0106E000E146E1050124A57
:10011800132A81B008D01350800A800F0A0ED8B471
:10012800125CD8A0EDD7D59E040E106E3D0EE82EB9
:10013800FED7102EFCD700D0F29481920BD081A06C
:10014800FED7040E106E3D0EE82EFED7102EFCD7FB
:1001580000D008D01350800A800F0A0ED8B4125C61
:10016800D8B0EDD7E40E106E440EE82EFED7102E50
:10017800FCD700F01350800A800F0A0ED8B4125C26
:10018800D8B0ADD79CD7106E010E116E105011501B
:10019800000AD8B447D7010AD8B45FD7030AD8B43D
:1001A80075D7010AD8B491D7070AD8B49BD7EBD72B
:1001B8000600E9CF04F0EACF05F0E1CF06F0E2CF80
:1001C80007F0D9CF08F0DACF09F0F3CF0AF0F4CF6F
:1001D8000BF0F6CF0CF0F7CF0DF0F8CF0EF0F5CF0F
:1001E8000FF0F2A401D001D007D0F294016E010EF5
:1001F800146E0150817200D00FC0F5FF0EC0F8FFD9
:100208000DC0F7FF0CC0F6FF0BC0F4FF0AC0F3FFE8
:1002180009C0DAFF08C0D9FF07C0E2FF06C0E1FF46
:1002280005C0EAFF04C0E9FF03C0FBFF02C0FAFFF4
:100238001100D59AD596D580D582D584D58CD598F8
:10024800F28EF28AF294F184D59E1200146A000E9E
:08025800F86E00010CEF00F04C
:020000040020DA
:08000000FFFFFFFFFFFFFFFF00
:020000040030CA
:0E000000FF081F1EFF8181FF0FC00FE00F40A1
:00000001FF
